{
  "contractName": "OurStorageDapp",
  "abi": [
    {
      "anonymous": false,
      "inputs": [
        {
          "indexed": false,
          "internalType": "string",
          "name": "action",
          "type": "string"
        },
        {
          "indexed": false,
          "internalType": "address",
          "name": "uploader",
          "type": "address"
        }
      ],
      "name": "FileUploadedEvent",
      "type": "event"
    },
    {
      "inputs": [],
      "name": "contractName",
      "outputs": [
        {
          "internalType": "string",
          "name": "",
          "type": "string"
        }
      ],
      "stateMutability": "view",
      "type": "function"
    },
    {
      "inputs": [
        {
          "internalType": "address",
          "name": "owner",
          "type": "address"
        }
      ],
      "name": "getTotalFileCount",
      "outputs": [
        {
          "internalType": "uint256",
          "name": "",
          "type": "uint256"
        }
      ],
      "stateMutability": "view",
      "type": "function"
    },
    {
      "inputs": [
        {
          "internalType": "uint256",
          "name": "_fileId",
          "type": "uint256"
        },
        {
          "internalType": "address",
          "name": "owner",
          "type": "address"
        }
      ],
      "name": "getFileOf",
      "outputs": [
        {
          "components": [
            {
              "internalType": "uint256",
              "name": "fileId",
              "type": "uint256"
            },
            {
              "internalType": "string",
              "name": "fileHash",
              "type": "string"
            },
            {
              "internalType": "uint256",
              "name": "fileSize",
              "type": "uint256"
            },
            {
              "internalType": "string",
              "name": "fileType",
              "type": "string"
            },
            {
              "internalType": "string",
              "name": "fileName",
              "type": "string"
            },
            {
              "internalType": "string",
              "name": "fileDes",
              "type": "string"
            },
            {
              "internalType": "uint256",
              "name": "uploadTime",
              "type": "uint256"
            },
            {
              "internalType": "address",
              "name": "uploader",
              "type": "address"
            }
          ],
          "internalType": "struct OurStorageDapp.File",
          "name": "",
          "type": "tuple"
        }
      ],
      "stateMutability": "view",
      "type": "function"
    },
    {
      "inputs": [
        {
          "internalType": "string",
          "name": "_fileHash",
          "type": "string"
        },
        {
          "internalType": "uint256",
          "name": "_fileSize",
          "type": "uint256"
        },
        {
          "internalType": "string",
          "name": "_fileType",
          "type": "string"
        },
        {
          "internalType": "string",
          "name": "_fileName",
          "type": "string"
        },
        {
          "internalType": "string",
          "name": "_fileDescription",
          "type": "string"
        }
      ],
      "name": "uploadFile",
      "outputs": [],
      "stateMutability": "nonpayable",
      "type": "function"
    },
    {
      "inputs": [
        {
          "internalType": "uint256",
          "name": "_id",
          "type": "uint256"
        }
      ],
      "name": "deleteFileName",
      "outputs": [],
      "stateMutability": "nonpayable",
      "type": "function"
    },
    {
      "inputs": [
        {
          "internalType": "uint256",
          "name": "_id",
          "type": "uint256"
        }
      ],
      "name": "deleteFile",
      "outputs": [],
      "stateMutability": "nonpayable",
      "type": "function"
    },
    {
      "inputs": [
        {
          "internalType": "uint256",
          "name": "_id",
          "type": "uint256"
        },
        {
          "internalType": "string",
          "name": "_name",
          "type": "string"
        },
        {
          "internalType": "string",
          "name": "_des",
          "type": "string"
        }
      ],
      "name": "editFileDeatils",
      "outputs": [],
      "stateMutability": "nonpayable",
      "type": "function"
    }
  ],
  "bytecode": "0x60806040526040518060400160405280601f81526020017f4f757220446563656e7472616c697a65642053746f7261676520284f44532900815250600090816200004a9190620002d9565b503480156200005857600080fd5b50620003c0565b600081519050919050565b7f4e487b7100000000000000000000000000000000000000000000000000000000600052604160045260246000fd5b7f4e487b7100000000000000000000000000000000000000000000000000000000600052602260045260246000fd5b60006002820490506001821680620000e157607f821691505b602082108103620000f757620000f662000099565b5b50919050565b60008190508160005260206000209050919050565b60006020601f8301049050919050565b600082821b905092915050565b600060088302620001617fffffffffffffffffffffffffffffffffffffffffffffffffffffffffffffffff8262000122565b6200016d868362000122565b95508019841693508086168417925050509392505050565b6000819050919050565b6000819050919050565b6000620001ba620001b4620001ae8462000185565b6200018f565b62000185565b9050919050565b6000819050919050565b620001d68362000199565b620001ee620001e582620001c1565b8484546200012f565b825550505050565b600090565b62000205620001f6565b62000212818484620001cb565b505050565b5b818110156200023a576200022e600082620001fb565b60018101905062000218565b5050565b601f82111562000289576200025381620000fd565b6200025e8462000112565b810160208510156200026e578190505b620002866200027d8562000112565b83018262000217565b50505b505050565b600082821c905092915050565b6000620002ae600019846008026200028e565b1980831691505092915050565b6000620002c983836200029b565b9150826002028217905092915050565b620002e4826200005f565b67ffffffffffffffff8111156200030057620002ff6200006a565b5b6200030c8254620000c8565b620003198282856200023e565b600060209050601f8311600181146200035157600084156200033c578287015190505b620003488582620002bb565b865550620003b8565b601f1984166200036186620000fd565b60005b828110156200038b5784890151825560018201915060208501945060208101905062000364565b86831015620003ab5784890151620003a7601f8916826200029b565b8355505b6001600288020188555050505b505050505050565b6116c980620003d06000396000f3fe608060405234801561001057600080fd5b506004361061007d5760003560e01c8063c5b420061161005b578063c5b42006146100ec578063c68662f814610108578063d5ec9e9514610124578063e82d9d33146101545761007d565b80632b8b3c8f1461008257806375d0c0dc1461009e578063a41d0de0146100bc575b600080fd5b61009c60048036038101906100979190610e04565b610170565b005b6100a6610237565b6040516100b39190610f0e565b60405180910390f35b6100d660048036038101906100d19190610f8e565b6102c5565b6040516100e391906110fb565b60405180910390f35b6101066004803603810190610101919061111d565b6105ed565b005b610122600480360381019061011d919061111d565b6107bb565b005b61013e6004803603810190610139919061114a565b610854565b60405161014b9190611186565b60405180910390f35b61016e600480360381019061016991906111a1565b61089d565b005b81600260003373ffffffffffffffffffffffffffffffffffffffff1673ffffffffffffffffffffffffffffffffffffffff168152602001908152602001600020600085815260200190815260200160002060040190816101d09190611498565b5080600260003373ffffffffffffffffffffffffffffffffffffffff1673ffffffffffffffffffffffffffffffffffffffff168152602001908152602001600020600085815260200190815260200160002060050190816102319190611498565b50505050565b60008054610244906112bb565b80601f0160208091040260200160405190810160405280929190818152602001828054610270906112bb565b80156102bd5780601f10610292576101008083540402835291602001916102bd565b820191906000526020600020905b8154815290600101906020018083116102a057829003601f168201915b505050505081565b6102cd610c19565b600260008373ffffffffffffffffffffffffffffffffffffffff1673ffffffffffffffffffffffffffffffffffffffff16815260200190815260200160002060008481526020019081526020016000206040518061010001604052908160008201548152602001600182018054610343906112bb565b80601f016020809104026020016040519081016040528092919081815260200182805461036f906112bb565b80156103bc5780601f10610391576101008083540402835291602001916103bc565b820191906000526020600020905b81548152906001019060200180831161039f57829003601f168201915b50505050508152602001600282015481526020016003820180546103df906112bb565b80601f016020809104026020016040519081016040528092919081815260200182805461040b906112bb565b80156104585780601f1061042d57610100808354040283529160200191610458565b820191906000526020600020905b81548152906001019060200180831161043b57829003601f168201915b50505050508152602001600482018054610471906112bb565b80601f016020809104026020016040519081016040528092919081815260200182805461049d906112bb565b80156104ea5780601f106104bf576101008083540402835291602001916104ea565b820191906000526020600020905b8154815290600101906020018083116104cd57829003601f168201915b50505050508152602001600582018054610503906112bb565b80601f016020809104026020016040519081016040528092919081815260200182805461052f906112bb565b801561057c5780601f106105515761010080835404028352916020019161057c565b820191906000526020600020905b81548152906001019060200180831161055f57829003601f168201915b50505050508152602001600682015481526020016007820160009054906101000a900473ffffffffffffffffffffffffffffffffffffffff1673ffffffffffffffffffffffffffffffffffffffff1673ffffffffffffffffffffffffffffffffffffffff1681525050905092915050565b60405180602001604052806000815250600260003373ffffffffffffffffffffffffffffffffffffffff1673ffffffffffffffffffffffffffffffffffffffff1681526020019081526020016000206000838152602001908152602001600020600101908161065c9190611498565b506040518060400160405280601181526020017f3064656c657465645f666f72657665725f000000000000000000000000000000815250600260003373ffffffffffffffffffffffffffffffffffffffff1673ffffffffffffffffffffffffffffffffffffffff168152602001908152602001600020600083815260200190815260200160002060040190816106f29190611498565b5060405180602001604052806000815250600260003373ffffffffffffffffffffffffffffffffffffffff1673ffffffffffffffffffffffffffffffffffffffff168152602001908152602001600020600083815260200190815260200160002060050190816107629190611498565b50600160003373ffffffffffffffffffffffffffffffffffffffff1673ffffffffffffffffffffffffffffffffffffffff16815260200190815260200160002060008154809291906107b390611599565b919050555050565b6040518060400160405280600981526020017f3064656c657465645f0000000000000000000000000000000000000000000000815250600260003373ffffffffffffffffffffffffffffffffffffffff1673ffffffffffffffffffffffffffffffffffffffff168152602001908152602001600020600083815260200190815260200160002060040190816108509190611498565b5050565b6000600160008373ffffffffffffffffffffffffffffffffffffffff1673ffffffffffffffffffffffffffffffffffffffff168152602001908152602001600020549050919050565b600085511180156108af575060008351115b80156108bc575060008151115b80156108c9575060008251115b80156109025750600073ffffffffffffffffffffffffffffffffffffffff163373ffffffffffffffffffffffffffffffffffffffff1614155b801561090e5750600084115b61091757600080fd5b6000600160003373ffffffffffffffffffffffffffffffffffffffff1673ffffffffffffffffffffffffffffffffffffffff16815260200190815260200160002054036109a75760018060003373ffffffffffffffffffffffffffffffffffffffff1673ffffffffffffffffffffffffffffffffffffffff168152602001908152602001600020819055506109fd565b600160003373ffffffffffffffffffffffffffffffffffffffff1673ffffffffffffffffffffffffffffffffffffffff16815260200190815260200160002060008154809291906109f7906115c2565b91905055505b604051806101000160405280600160003373ffffffffffffffffffffffffffffffffffffffff1673ffffffffffffffffffffffffffffffffffffffff1681526020019081526020016000205481526020018681526020018581526020018481526020018381526020018281526020014281526020013373ffffffffffffffffffffffffffffffffffffffff16815250600260003373ffffffffffffffffffffffffffffffffffffffff1673ffffffffffffffffffffffffffffffffffffffff1681526020019081526020016000206000600160003373ffffffffffffffffffffffffffffffffffffffff1673ffffffffffffffffffffffffffffffffffffffff168152602001908152602001600020548152602001908152602001600020600082015181600001556020820151816001019081610b3a9190611498565b50604082015181600201556060820151816003019081610b5a9190611498565b506080820151816004019081610b709190611498565b5060a0820151816005019081610b869190611498565b5060c0820151816006015560e08201518160070160006101000a81548173ffffffffffffffffffffffffffffffffffffffff021916908373ffffffffffffffffffffffffffffffffffffffff1602179055509050507f09b4a9d4e432544073816c687a5a6d6e5c8ef151a3cc55eabab7de7ca2ecdc4533604051610c0a9190611665565b60405180910390a15050505050565b60405180610100016040528060008152602001606081526020016000815260200160608152602001606081526020016060815260200160008152602001600073ffffffffffffffffffffffffffffffffffffffff1681525090565b6000604051905090565b600080fd5b600080fd5b6000819050919050565b610c9b81610c88565b8114610ca657600080fd5b50565b600081359050610cb881610c92565b92915050565b600080fd5b600080fd5b6000601f19601f8301169050919050565b7f4e487b7100000000000000000000000000000000000000000000000000000000600052604160045260246000fd5b610d1182610cc8565b810181811067ffffffffffffffff82111715610d3057610d2f610cd9565b5b80604052505050565b6000610d43610c74565b9050610d4f8282610d08565b919050565b600067ffffffffffffffff821115610d6f57610d6e610cd9565b5b610d7882610cc8565b9050602081019050919050565b82818337600083830152505050565b6000610da7610da284610d54565b610d39565b905082815260208101848484011115610dc357610dc2610cc3565b5b610dce848285610d85565b509392505050565b600082601f830112610deb57610dea610cbe565b5b8135610dfb848260208601610d94565b91505092915050565b600080600060608486031215610e1d57610e1c610c7e565b5b6000610e2b86828701610ca9565b935050602084013567ffffffffffffffff811115610e4c57610e4b610c83565b5b610e5886828701610dd6565b925050604084013567ffffffffffffffff811115610e7957610e78610c83565b5b610e8586828701610dd6565b9150509250925092565b600081519050919050565b600082825260208201905092915050565b60005b83811015610ec9578082015181840152602081019050610eae565b60008484015250505050565b6000610ee082610e8f565b610eea8185610e9a565b9350610efa818560208601610eab565b610f0381610cc8565b840191505092915050565b60006020820190508181036000830152610f288184610ed5565b905092915050565b600073ffffffffffffffffffffffffffffffffffffffff82169050919050565b6000610f5b82610f30565b9050919050565b610f6b81610f50565b8114610f7657600080fd5b50565b600081359050610f8881610f62565b92915050565b60008060408385031215610fa557610fa4610c7e565b5b6000610fb385828601610ca9565b9250506020610fc485828601610f79565b9150509250929050565b610fd781610c88565b82525050565b600082825260208201905092915050565b6000610ff982610e8f565b6110038185610fdd565b9350611013818560208601610eab565b61101c81610cc8565b840191505092915050565b61103081610f50565b82525050565b60006101008301600083015161104f6000860182610fce565b50602083015184820360208601526110678282610fee565b915050604083015161107c6040860182610fce565b50606083015184820360608601526110948282610fee565b915050608083015184820360808601526110ae8282610fee565b91505060a083015184820360a08601526110c88282610fee565b91505060c08301516110dd60c0860182610fce565b5060e08301516110f060e0860182611027565b508091505092915050565b600060208201905081810360008301526111158184611036565b905092915050565b60006020828403121561113357611132610c7e565b5b600061114184828501610ca9565b91505092915050565b6000602082840312156111605761115f610c7e565b5b600061116e84828501610f79565b91505092915050565b61118081610c88565b82525050565b600060208201905061119b6000830184611177565b92915050565b600080600080600060a086880312156111bd576111bc610c7e565b5b600086013567ffffffffffffffff8111156111db576111da610c83565b5b6111e788828901610dd6565b95505060206111f888828901610ca9565b945050604086013567ffffffffffffffff81111561121957611218610c83565b5b61122588828901610dd6565b935050606086013567ffffffffffffffff81111561124657611245610c83565b5b61125288828901610dd6565b925050608086013567ffffffffffffffff81111561127357611272610c83565b5b61127f88828901610dd6565b9150509295509295909350565b7f4e487b7100000000000000000000000000000000000000000000000000000000600052602260045260246000fd5b600060028204905060018216806112d357607f821691505b6020821081036112e6576112e561128c565b5b50919050565b60008190508160005260206000209050919050565b60006020601f8301049050919050565b600082821b905092915050565b60006008830261134e7fffffffffffffffffffffffffffffffffffffffffffffffffffffffffffffffff82611311565b6113588683611311565b95508019841693508086168417925050509392505050565b6000819050919050565b600061139561139061138b84610c88565b611370565b610c88565b9050919050565b6000819050919050565b6113af8361137a565b6113c36113bb8261139c565b84845461131e565b825550505050565b600090565b6113d86113cb565b6113e38184846113a6565b505050565b5b81811015611407576113fc6000826113d0565b6001810190506113e9565b5050565b601f82111561144c5761141d816112ec565b61142684611301565b81016020851015611435578190505b61144961144185611301565b8301826113e8565b50505b505050565b600082821c905092915050565b600061146f60001984600802611451565b1980831691505092915050565b6000611488838361145e565b9150826002028217905092915050565b6114a182610e8f565b67ffffffffffffffff8111156114ba576114b9610cd9565b5b6114c482546112bb565b6114cf82828561140b565b600060209050601f83116001811461150257600084156114f0578287015190505b6114fa858261147c565b865550611562565b601f198416611510866112ec565b60005b8281101561153857848901518255600182019150602085019450602081019050611513565b868310156115555784890151611551601f89168261145e565b8355505b6001600288020188555050505b505050505050565b7f4e487b7100000000000000000000000000000000000000000000000000000000600052601160045260246000fd5b60006115a482610c88565b9150600082036115b7576115b661156a565b5b600182039050919050565b60006115cd82610c88565b91507fffffffffffffffffffffffffffffffffffffffffffffffffffffffffffffffff82036115ff576115fe61156a565b5b600182019050919050565b7f46696c652055706c6f6164656400000000000000000000000000000000000000600082015250565b6000611640600d83610e9a565b915061164b8261160a565b602082019050919050565b61165f81610f50565b82525050565b6000604082019050818103600083015261167e81611633565b905061168d6020830184611656565b9291505056fea264697066735822122095edfcd708394cb7f6244bdd4f53d259a06ab3985dfa9f20c15ec03307cab29464736f6c63430008110033",
  "immutableReferences": {},
  "source": "// SPDX-License-Identifier: MIT\r\npragma solidity >=0.4.22 <0.9.0;\r\n\r\ncontract OurStorageDapp {\r\n    string public contractName = \"Our Decentralized Storage (ODS)\";\r\n    mapping(address => uint256) internal totalFilesOf;\r\n    mapping(address => mapping(uint256 => File)) internal fileOf;\r\n\r\n    struct File {\r\n        uint256 fileId;\r\n        string fileHash;\r\n        uint256 fileSize;\r\n        string fileType;\r\n        string fileName;\r\n        string fileDes;\r\n        uint256 uploadTime;\r\n        address uploader;\r\n    }\r\n\r\n    event FileUploadedEvent(string action, address uploader);\r\n\r\n    function getTotalFileCount(address owner) public view returns (uint256) {\r\n        return totalFilesOf[owner];\r\n    }\r\n\r\n    function getFileOf(uint256 _fileId , address owner) public view returns (File memory) {\r\n        return fileOf[owner][_fileId];\r\n    }\r\n\r\n\r\n        //start =>  upload- delete-edit \r\n    function uploadFile(\r\n        string memory _fileHash,\r\n        uint256 _fileSize,\r\n        string memory _fileType,\r\n        string memory _fileName,\r\n        string memory _fileDescription\r\n    ) public {\r\n        require(\r\n            bytes(_fileHash).length > 0 &&\r\n                bytes(_fileType).length > 0 &&\r\n                bytes(_fileDescription).length > 0 &&\r\n                bytes(_fileName).length > 0 &&\r\n                msg.sender != address(0) &&\r\n                _fileSize > 0\r\n        );\r\n        \r\n        if(totalFilesOf[msg.sender]==0)\r\n        totalFilesOf[msg.sender]=1; \r\n        else \r\n        totalFilesOf[msg.sender]++;\r\n\r\n        fileOf[msg.sender][totalFilesOf[msg.sender]] = File(\r\n            totalFilesOf[msg.sender],\r\n            _fileHash,\r\n            _fileSize,\r\n            _fileType,\r\n            _fileName,\r\n            _fileDescription,\r\n            block.timestamp,\r\n            msg.sender\r\n        );\r\n\r\n        emit FileUploadedEvent(\"File Uploaded\", msg.sender);\r\n    }\r\n\r\n    function deleteFileName(uint256 _id) public {\r\n        fileOf[msg.sender][_id].fileName = \"0deleted_\";\r\n    }\r\n\r\n    function deleteFile(uint256 _id) public {\r\n        fileOf[msg.sender][_id].fileHash = \"\";\r\n        fileOf[msg.sender][_id].fileName = \"0deleted_forever_\";\r\n        fileOf[msg.sender][_id].fileDes = \"\"; \r\n        totalFilesOf[msg.sender]--;\r\n    }\r\n\r\n    function editFileDeatils(\r\n        uint256 _id,\r\n        string memory _name,\r\n        string memory _des\r\n    ) public {\r\n        fileOf[msg.sender][_id].fileName = _name;\r\n        fileOf[msg.sender][_id].fileDes = _des;\r\n    }\r\n        //end =>  upload- delete-edit \r\n\r\n}",
  "sourcePath": "C:\\Users\\asusl\\OneDrive\\Desktop\\blockchain\\Storage system\\contracts\\OurStorageDapp.sol",
  "compiler": {
    "name": "solc",
    "version": "0.8.17+commit.8df45f5f.Emscripten.clang"
  },
  "schemaVersion": "3.4.11",
  "updatedAt": "2022-12-22T07:58:57.524Z",
  "devdoc": {
    "kind": "dev",
    "methods": {},
    "version": 1
  },
  "userdoc": {
    "kind": "user",
    "methods": {},
    "version": 1
  }
}